:020000041000EA
:10000000002008205D0100101B0100101D010010E0
:100010001101001011010010110100101101001058
:100020001901001019010010190100101F01001022
:10003000110100101901001021010010230100100E
:100040001101001011010010110100101101001028
:100050001101001011010010110100101101001018
:100060001101001011010010110100101101001008
:1000700011010010110100101101001011010010F8
:1000800011010010110100101101001011010010E8
:1000900011010010110100101101001011010010D8
:1000A00011010010110100101101001011010010C8
:1000B00011010010110100101101001011010010B8
:1000C00011010010110100101101001011010010A8
:1000D0001101001011010010110100101101001098
:1000E0001101001011010010110100101101001088
:1000F0001101001011010010110100101101001078
:100100001101001011010010110100101101001067
:10011000EFF30580103800BE00BE00BE00BE00BE7A
:1001200000BE00BEF2EB8871C8610010F0610010E3
:10013000A001001090A31AE7D3DEFFFF42012110B7
:10014000FF01000030650000793512AB4FF0000070
:100150001E49086006C881F3088810474FF05040D8
:10016000006810B14FF00000F2E70DA40ECC00299A
:1001700002D000F012F8F9E71549164A002000E015
:1001800001C19142FCD11449884714498847144958
:10019000884700BEFDE701C901C29A42FBD3704700
:1001A000F061001010010020880500206866001032
:1001B00000000820000008206866001000100820D9
:1001C00000100820000000007047000008ED00E06B
:1001D0008805002078090020015200109D0D0010B4
:1001E000F9510010F8B500BF08B5034B1BB1034926
:1001F0000348AFF3008008BD000000002C09002078
:10020000685D0010000000002DE9F04F04A7D7E959
:100210000067DFF814B0DFF814A085B012E000BF6B
:10022000E4388EE37C46E840AF6000108060001048
:100230004FF4AF7001F076FFBC4B0AF1010A5B4549
:1002400000F026821BF8010F0028F1D003F06AF8B5
:100250000022B74B02F0DEFF0022B64B03F014F889
:1002600002460B4600204FF0804102F037FE00228C
:10027000B14B02F0E3FF0022B04B8046894602F00A
:10028000DDFF32463B4602F0FFFF0022002304461A
:100290000D4603F0DBF8002800F0FD8120462946DA
:1002A0000022A74B03F0AAF8002840F07B8200222E
:1002B000A44B4046494602F0C1FF32463B4602F09D
:1002C000E3FF04460D462046294600229C4B03F0DE
:1002D00095F8002840F0898200229B4B4046494611
:1002E00002F0ACFF32463B4602F0CEFF04460D461C
:1002F000204629460022924B03F080F8002840F067
:10030000778200224FF082434046494602F096FF32
:1003100032463B4602F0B8FF04460D4620462946C9
:100320000022874B03F06AF8002840F06482002224
:10033000864B4046494602F081FF32463B4602F07A
:10034000A3FF04460D462046294600227C4B03F0BD
:1003500055F8002840F0528200227D4B4046494625
:1003600002F06CFF32463B4602F08EFF04460D461B
:10037000204629460022724B03F040F8002840F046
:1003800040820022734B4046494602F057FF3246F6
:100390003B4602F079FF04460D46204629460022DE
:1003A000674B03F02BF8002840F02E8200226A4BA6
:1003B0004046494602F042FF32463B4602F064FFA7
:1003C00004460D462046294600225D4B03F016F8F0
:1003D0004FF00E09002840F0E781DFF89491DFF834
:1003E0008881CDF804905D4D0A2228684FF0000303
:1003F00043EC4020092243EC4020012400F110038B
:10040000574A9C4053682342FCD101238100554A3E
:10041000183001F1A04101F50011834050480A61F4
:1004200042681A42FCD00120CDE9023101F012FFEE
:1004300009224FF0010040EC4020DDE9023148483C
:1004400042681442FCD1474A0A6145494A6813424E
:10045000FCD00A22012444EC40204FF0000328681D
:1004600043EC4020092243EC40203D4A00F11003B8
:100470009C4053682342FCD1012381003A4A183042
:1004800001F1A04101F50011834035480A6142683D
:100490001A42FCD00120CDE9021301F0DBFE092253
:1004A0004FF0010040EC4020DDE902132C48426887
:1004B0001442FCD1019A0A6129494A681342FCD0CE
:1004C0000A22012444EC40204FF00003286843EC4A
:1004D0004020092243EC4020214A00F110039C40B7
:1004E00053682342FCD101238100204A183001F1D6
:1004F000A04101F50011834019480A6142681A427F
:10050000FCD00120CDE9011301F0A4FE09224FF037
:10051000010040EC4020DDE901131148426814421B
:10052000FCD1C1F810900E4924E000BFDF6000103C
:10053000004051400000284000807B4000003041D6
:100540000000904000002041000010410000F040F9
:100550000000E0400000D0400000C04064090020DE
:10056000000020503061C00410214004204180046C
:10057000000100044A681342FCD04FF00A0901242C
:1005800044EC40903220002101F0B4FD4FF0000314
:10059000286843EC4090092243EC40209C4A00F13B
:1005A00010039C4053682342FCD14FF001098100A5
:1005B000984B01F1A04101F500111830944A09FA55
:1005C00000F90B61536813EA090FFBD00120019178
:1005D00001F040FE09234FF0010242EC40308C4A0A
:1005E000019953681C42FCD1894AC1F810805368B4
:1005F00019EA030FFBD04FF00A08012444EC4080B5
:100600004FF4AF709AF8003003FB00F001F08AFD60
:100610004FF00003296843EC4080092243EC40205E
:100620007B4A01F110039C4053682342FCD1012511
:100630004FEA8108774B08F1A04808F500181831F7
:10064000734A8D40C8F8103053682B42FCD001200B
:1006500001F000FE09234FF0010242EC40306C4AE9
:1006600053681C42FCD16C4B694AC8F8103053687F
:100670001D42FCD00A234FF0010242EC403014200E
:1006800001F050FD654B0AF1010A5B457FF4DAADDC
:1006900005B0BDE8F08F0022614B4046494602F0AC
:1006A000CDFD32463B4602F0EFFD0022002304461A
:1006B0000D4602F0CBFE00287FF405AE0022594B18
:1006C0004046494602F0BAFD32463B4602F0DCFDA8
:1006D0000022002304460D4602F0B8FE00287FF4F5
:1006E00007AE00224FF082434046494602F0A6FD85
:1006F00032463B4602F0C8FD0022002304460D4668
:1007000002F0A4FE00287FF409AE0022464B4046CA
:10071000494602F093FD32463B4602F0B5FD002209
:10072000002304460D4602F091FE00287FF40BAE34
:1007300000223E4B4046494602F080FD32463B4691
:1007400002F0A2FD0022002304460D4602F07EFEC8
:1007500000287FF40DAE0022354B4046494602F09A
:100760006DFD32463B4602F08FFD00220023044619
:100770000D4602F06BFE00287FF40FAE00222D4BD9
:100780004046494602F05AFD32463B4602F07CFDA7
:100790000022002304460D4602F058FE00283FF4D4
:1007A0001CAE0FE64FF000092046294602F0FAFA87
:1007B00002F0EEFDC0F30023C0B249EA030940F4A1
:1007C000807149F4887349F4807249F0100841EA55
:1007D000402040EA814142EA492943EA4828019100
:1007E00049EA824948EA8348FDE54FF00209DBE720
:1007F0004FF00409D8E74FF00609D5E74FF0080994
:10080000D2E74FF00A09CFE74FF00C09CCE700BF61
:10081000000020502041800400010004DF6000102F
:1008200000002041000010410000F0400000E040C6
:100830000000D0400000C0402DE9F04702F072FDFA
:100840000022B74B02F0E6FC0022B64B02F01CFD82
:1008500002460B4600204FF0804102F03FFB002291
:10086000B14B02F0EBFC0022B04B06460F4602F003
:10087000E5FCA9A3D3E9002302F006FD0022002332
:1008800004460D4602F0E2FD0022002800F0AC8193
:1008900020462946A64B02F0B1FD002840F05B82BD
:1008A0000022A44B3046394602F0C8FC9AA3D3E993
:1008B000002302F0E9FC00229D4B04460D4602F0A5
:1008C0009DFD002840F0248200229B4B3046394693
:1008D00002F0B4FC90A3D3E9002302F0D5FC044657
:1008E0000D46002220462946914B02F087FD002844
:1008F00040F0338200224FF082433046394602F006
:100900009DFC85A3D3E9002302F0BEFC04460D46FE
:10091000002220462946864B02F070FD002840F058
:100920001E820022854B3046394602F087FC7AA3AE
:10093000D3E9002302F0A8FC04460D46002220461D
:1009400029467B4B02F05AFD002840F0028200222B
:100950007B4B3046394602F071FC6FA3D3E900238C
:1009600002F092FC04460D46002220462946704BB8
:1009700002F044FD002840F0F4810022714B304623
:10098000394602F05BFC64A3D3E9002302F07CFC4F
:1009900004460D46002220462946654B02F02EFDF6
:1009A000002840F0E0810022674B3046394602F0D3
:1009B00045FC59A3D3E9002302F066FC04460D462A
:1009C0000022204629465A4B02F018FD072600282F
:1009D00040F09F81DFF88C815C4EC1465C4F0A225B
:1009E00039684FF0000343EC4020092243EC4020DB
:1009F000012401F11003574A9C4053682342FCD163
:100A000001254FEA810A544B0AF1A04A0AF5001A5F
:100A10001831504A8D40CAF8103053682B42FCD030
:100A2000012001F017FC09234FF0010242EC403095
:100A3000484A53681C42FCD1484B464ACAF8103019
:100A400053681D42FCD00A22012444EC40204FF0A0
:100A50000003396843EC4020092243EC40203D4A22
:100A600001F110039C4053682342FCD101254FEA59
:100A7000810A364B0AF1A04A0AF5001A1831354AA4
:100A80008D40CAF8103053682B42FCD0012001F091
:100A9000E1FB09234FF0010242EC40302D4A53683C
:100AA0001C42FCD12B4ACAF8109053681D42FCD05E
:100AB0000A22012444EC40204FF00003396843EC43
:100AC0004020092243EC4020224A01F110039C40BF
:100AD00053682342FCD101254FEA8109204B09F1DB
:100AE000A04909F5001918311A4A8D40C9F810308B
:100AF00053682B42FCD0012001F0ACFB09234FF0DE
:100B0000010242EC4030134A53681C42FCD1114AA6
:100B1000C9F8108028E000BFE4388EE37C46E84046
:100B2000004051400000284000807B4000003041E0
:100B30000000904000002041000010410000F04003
:100B40000000E0400000D0400000C0401021400400
:100B500064090020000020503061C00480010106BB
:100B6000204180040001000453681D42FCD00A2586
:100B7000012444EC40503220002101F0BBFA4FF038
:100B80000003396843EC4050092243EC40207A4A84
:100B900001F110039C4053682342FCD101258F00D2
:100BA000764B07F1A04707F500171831724A3B61F1
:100BB0008D4053682B42FCD0012001F04BFB0923F0
:100BC0004FF0010242EC40306B4A53681C42FCD1AA
:100BD000694A3E6153681D42FCD00A234FF001026E
:100BE00042EC4030BDE8F087654B3046394602F0B4
:100BF00025FB5FA3D3E9002302F046FB002200237C
:100C000004460D4602F022FC0022002878D15D4BFC
:100C10003046394602F012FB55A3D3E9002302F017
:100C200033FB0022002304460D4602F00FFC00288F
:100C30007FF457AE00224FF082433046394602F02F
:100C4000FDFA4BA3D3E9002302F01EFB0022002390
:100C500004460D4602F0FAFB00287FF459AE00224C
:100C6000494B3046394602F0E9FA41A3D3E9002363
:100C700002F00AFB0022002304460D4602F0E6FBC8
:100C800000287FF45BAE0022404B3046394602F02C
:100C9000D5FA37A3D3E9002302F0F6FA00220023A5
:100CA00004460D4602F0D2FB00287FF45DAE002220
:100CB000374B3046394602F0C1FA2DA3D3E9002361
:100CC00002F0E2FA0022002304460D4602F0BEFBC9
:100CD00000287FF45FAE00222E4B3046394602F0EA
:100CE000ADFA23A3D3E9002302F0CEFA00220023B9
:100CF00004460D4602F0AAFB00283FF46BAE5FE607
:100D000020462946244B02F079FB00283FF4DCAD55
:100D100001262046294602F045F802F039FBC0F3CF
:100D2000002848EA4608C0B248F4887348F4807244
:100D300040F4807148F0100641EA402042EA482819
:100D400043EA462640EA814948EA824846EA834621
:100D500044E60426DDE70026DBE70226D9E7032682
:100D6000D7E70526D5E70626D3E700BFAFF3008017
:100D7000E4388EE37C46E8400000205020418004A7
:100D800000002041000010410000F0400000E04061
:100D90000000D0400000C040000090402DE9F04F1E
:100DA0008FB004F059FB4FF4FA6001F0BBF9B14881
:100DB00004F09AFBB04804F097FB092000F0A2FB76
:100DC0004FF00105092345EC44304FF0000646EC96
:100DD00040300A2000F096FB0A2345EC443045ECF5
:100DE00040300B2000F08EFB0B2345EC443045ECEB
:100DF00040300C24204600F085FB45EC444046EC96
:100E0000404001340F2CF5D1192000F07BFB192351
:100E100045EC443046EC403000244FF001052646B6
:100E2000204600F06FFB45EC44404FF0000343ECDC
:100E300040400134092CF3D1904804F055FB90490F
:100E4000904804F0F7FC012107468E4804F0D6FCD8
:100E50004FF480324FF4F833CDE906234FF44022AB
:100E60004FF4100E4FF4602C00240996FB1DDFF8A0
:100E70002892FE0146EA03360DF1280806AB0892D7
:100E80000546C9F800000FCB88E80F00CDE90CCE6D
:100E90000B9620460621013400F016FB092CF8D1F0
:100EA00001262346774C294600222046009604F06E
:100EB00071FD2946204640F2FF134FF4807204F082
:100EC00035FD294643463A46204604F0A9FD2268EE
:100ED00006FA05F3134323606B4804F005FB0B256A
:100EE0004FF0000343EC4050304601F01BF946EC54
:100EF00040500A2001F016F92027B046D9F80050DA
:100F00000A224FF0000343EC4020092243EC40202A
:100F100005F1100A06FA0AFA636813EA0A0FFBD110
:100F200047F480734FEA850B43EA47220BF1A04B4D
:100F300042EA83430BF5001B1835CBF8103006FA54
:100F400005F563682B42FCD0012001F083F90923E9
:100F500048EC403063681AEA030FFBD14B4BCBF8E7
:100F6000103063681D42FCD00A2348EC4030013742
:100F7000292FC3D14FF030084FF0010A414C444FA4
:100F8000D9F800500A224FF0000343EC4020092218
:100F900043EC402005F110060AFA06F66368334276
:100FA000FCD148F480734FEA850B43EA48220BF1E9
:100FB000A04B42EA83430BF5001B1835CBF81030E9
:100FC0000AFA05F563682B42FCD0012001F042F9D2
:100FD00009234FF0010242EC403063681E42FCD10D
:100FE000CBF8107063681D42FCD00A234FF0010259
:100FF00042EC403008F10108B8F1390FC0D1D9F8FE
:1010000000104FF0000242EC4030092342EC403027
:101010001C4A01F110050AFA05F553682B42FCD170
:1010200001248E001B4B06F1A04606F50016183170
:10103000144A33618C4053682342FCD0012001F0F4
:1010400009F909234FF0010242EC40300D4A536880
:101050001D42FCD10D4B0B4A336153681C42FCD03E
:101060000A234FF0010242EC4030032519264FF0CD
:10107000000713E0685D0010845D00109C5D0010A7
:10108000E060001000002050B05D0010000100047E
:101090000F1F3C040E1D380464090020012444EC99
:1010A0004060962001F03EF847EC4060962001F049
:1010B00039F8013DF2D1A84804F016FAA74804F027
:1010C00013FA3C20FFF7B8FB4FF4FA6001F02AF85E
:1010D0000A23D9F8001047EC4030092347EC403090
:1010E0009F4A01F110039C4053682342FCD1012523
:1010F0008E009C4B06F1A04606F500161831984A62
:1011000033618D4053682B42FCD0012001F0A2F8DE
:1011100009234FF0010242EC4030914A53681C42CF
:10112000FCD1914B8E4A336153681D42FCD00A2397
:101130004FF0010242EC403001274FF4FA7000F00A
:10114000F1FF8A4804F0D0F9894804F0CDF93E4611
:10115000DFF84882824C18F8010FFFF76DFB4FF45F
:10116000C87000F0DFFF0A224FF00003D9F80050EA
:1011700043EC4020092243EC402005F1100A07FA15
:101180000AFA636813EA0A0FFBD14FEA850B754B25
:101190000BF1A04B0BF5001B1835CBF8103007FAFC
:1011A00005F563682B42FCD0012001F053F80923B8
:1011B00046EC403063681AEA030FFBD16A4BCBF868
:1011C000103063681D42FCD00A2546EC40501E20BA
:1011D00000F0A8FF674B4345BDD14FF4FA7000F013
:1011E000A1FF654804F080F9192446EC4040FFF760
:1011F0000BF84FF0000343EC40404FF0000B012789
:101200004FF009085E46BA465C4804F06DF95C4848
:1012100004F06AF95B4B524C0293029B594653F817
:10122000042F5948029304F0E1F9D9F8003046EC54
:10123000405046EC408003F1100207FA02F2616868
:101240001142FCD19900514801F1A04101F5001172
:101250001833086107FA03F360681842FCD00120D4
:10126000CDE90421039300F0F5FF4AEC4080DDE96D
:1012700004214FEA0B10C0B240F4807C4CEA4020BD
:10128000039B40EA8C4C60680242FCD1C1F810C05C
:1012900062681342FCD04FF0010343EC4050D9F890
:1012A000003046EC405046EC408003F1100207FA53
:1012B00002F261681142FCD19900354801F1A04168
:1012C00001F500111833086107FA03F3606818424A
:1012D000FCD00120CDE90421039300F0BBFF4AECD0
:1012E0004080DDE90421039B60680242FCD1294A69
:1012F0000A6162681342FCD04FF0010343EC405096
:10130000D9F8003046EC405046EC408003F1100222
:1013100007FA02F261681142FCD19900114801F10B
:10132000A04101F500111833086107FA03F3606862
:101330001842FCD00120CDE90421039300F08AFF7C
:101340004AEC4080DDE90421039B60680242FCD145
:10135000114A0A6124E000BFC45D0010DC5D00108A
:10136000000020502041800400010004005E0010B5
:10137000145E00107F600010245E0010385E0010C4
:10138000545E001034600010805E00103061C004B4
:1013900010214004B265C906060D180477600010DC
:1013A00062681342FCD04FF0010343EC40503220FE
:1013B000002100F09FFED9F8003046EC405046EC8A
:1013C000408003F1100207FA02F261681142FCD179
:1013D0009900394801F1A04101F500111833086165
:1013E00007FA03F360681842FCD00120CDE904211C
:1013F000039300F02FFF4AEC4080DDE90421039BBA
:1014000060680242FCD12D4A0A6162681342FCD036
:101410004FF0010343EC40504FF4167000F082FE91
:10142000D9F8003046EC405046EC408003F1100201
:1014300007FA02F261681142FCD199001E4801F1DD
:10144000A04101F500111833086107FA03F3606841
:101450001842FCD00120CDE90421039300F0FAFEEC
:101460004AEC4080DDE90421039B60680242FCD124
:10147000134A0A6162681342FCD04AEC405064206F
:101480000BF1010B00F04EFEBBF1100F7FF4C5AE67
:101490000C4804F029F819244FF001064FF000051C
:1014A00046EC4040FEF7B0FE45EC40404FF4FA6099
:1014B00000F038FEF4E700BF20418004162D5804E8
:1014C00000010004905E001010B44FF480740C4BC7
:1014D00053F8202003EB8003C00082F0400200F1AB
:1014E000804003F5805C02F0C00200F5203003F577
:1014F0004053CCF8002041601C605DF8044B7047FD
:101500000480034030B44FF0000343EC440043EC4C
:10151000400005254FF480740B4BC20053F8201097
:1015200003EB800081F0400102F1804303F520339A
:1015300001F0C00200F5805100F540500A605D6086
:10154000046030BC704700BF048003400FB400B596
:1015500083B0049C074803F0C7FF3CB105A92046AF
:10156000019103F02FFE044803F0BEFF012003F0B9
:1015700041FE00BF445F0010545F0010EFF3108085
:1015800072B6064BD3E8CF1F01220029FAD1C3E877
:10159000412F0029F6D1BFF35F8F7047C7080020A5
:1015A0000023034AC2E88F3F80F31088704700BFD2
:1015B000C708002070B58646EFF3108572B6124C4E
:1015C000D4E8CF6F0120002EFAD1C4E8460F002ED8
:1015D000F6D1BFF35F8F4FF0010CC80801F007038D
:1015E0000CFA03F31EF800C01CEA030608D14CEA0B
:1015F000030C0EF800C0C4E88F6F85F3108870BD2F
:101600001046FFF7A3FF00BFC7080020F8B5EFF3AF
:10161000108572B6234CD4E8CF7F0126002FFAD173
:10162000C4E8476F002FF6D1BFF35F8F9A4227D8E7
:101630000126D70810F807E002F0070C06FA0CFCA8
:101640001EEA0C0F00EBD2070DD125E04FEAD20EB7
:1016500010F80EE002F0070C06FA0CFC1EEA0C0F64
:1016600000EBD20718D001329342EFD24FF0FF3097
:101670000023C4E88F3F85F31088984207DBF8BD4C
:101680000023C4E88F3F85F310884FF0FF30002916
:10169000F5D00698FFF75AFF4EEA0C0E104687F871
:1016A00000E0E5E7C7080020044A1078431CDBB2DD
:1016B000182B28BF10231370704700BF00050020AF
:1016C0004FF0E022936843F000539360704700BFEF
:1016D0000021044B03F12002C3E88F1F0133934222
:1016E000FAD17047BC0800204FF0E0234FF0803261
:1016F000C3F80024C3F80424C3F80824C3F80C2456
:10170000C3F81024C3F81424C3F81824C3F81C2405
:10171000C3F82024C3F82424C3F82824C3F82C24B5
:10172000C3F8302462B67047012300F01F029340D3
:10173000400941B1800000F1604000F56140C0F80F
:10174000803103607047024A203042F820307047F1
:1017500000E100E0F8B50D46EFF3108772B6124EC7
:10176000D6E8CF2F0123002AFAD1C6E8423F002A4B
:10177000F6D1BFF35F8F0D4B00F110049B680C4A4C
:1017800053F82430934203D0994201D000F060FF17
:10179000064B9B6843F82450BFF35F8F0023C6E8D5
:1017A0008F3F87F31088F8BDC508002000ED00E0EA
:1017B000110100102DE9F04F83B0EFF3108A72B6DB
:1017C000744ED6E8CF2F0123002AFAD1C6E8423F53
:1017D000002AF6D1BFF35F8F6F4B00F110089B68B2
:1017E0006E4A53F8285095423FD08D420C464AD05D
:1017F0006B4FEB1B2F2B38D801214FEA50194FEAC2
:10180000890909F1604909F5614900F01F0301FAEE
:1018100003F0D9F80030C9F8800000EA030BBFF3E9
:101820005F8FEFF30581C9B279B3884577D125F091
:10183000010EDEF808C0644505D17CE0D3F808C08D
:10184000644532D09E469EF9062002EB4203002AF0
:1018500007EB8303F2DA644500F08180BBF1000FEF
:1018600020D0C9F88001C9F800004B4B9B6843F8B1
:101870002850BFF35F8F0023C6E88F3F8AF310889C
:1018800003B0BDE8F08F1546EFE725F0010EDEF856
:1018900008C06445D7D19EF906407346002C08DA8B
:1018A000154666E0C9F88000DFE793F90640002C92
:1018B00056DB04EB440C07EB8C0CDCF808206100D1
:1018C0009A609CF80720DA719CF90620002A9A7128
:1018D0005DDBBCF80420520504D502F5FF1202F5C9
:1018E000FF521F32521502F1020C4FF0040E0C226F
:1018F00012FB04E202EB4C026FF0070C3A44ACEB33
:10190000030C6244C2F34A0242F460429A80254BBF
:1019100021441A7807EB81011C708A719EE7CDE99A
:10192000000100F095FEDDE9000125F0010EDEF872
:1019300008C0644587D19EF906407346002CB8DA8A
:10194000194A1A4CD21A083AC2F30A316FEA015105
:101950006FEA115144EA5202DA8099807EE77346B9
:101960000029EDD1FF228EF806204BF60152AEF889
:1019700004200C4C4AF6AA2294F800C01946C91B50
:1019800049414A43120D83F806C0227066E74BF6C0
:101990000152BBE7C508002000ED00E01101001076
:1019A00004050020740900203E05002000F8FFFF18
:1019B000F0B5EFF30585EDB2EFF3108C72B6264962
:1019C000D1E8CF2F0123002AFAD1C1E8423F002AF3
:1019D000F6D1BFF35F8F214E40F0010EB4684AF696
:1019E000AA2354F825701E4A0446A41A644163438E
:1019F0001B0D77455BB21BD092F906409C421CD070
:101A000092F912409C4223D092F91E409C4221D070
:101A100092F92A409C4208BF03240FD0114A0024A7
:101A2000157813708571C1E88F4F8CF31088F0BD65
:101A3000B2680D4C42F82540F0E7002404EB440462
:101A400002EB8402FF2494714BF601549480E5E785
:101A50000124F3E70224F1E7C508002000ED00E0CF
:101A6000040500207409002011010010014B0B44F3
:101A700003607047BC08002070B5104C104DAC429C
:101A80000ED2FF26236863B1FFF70EFE0146204603
:101A9000FFF7ECFFA680BFF35F8F0834AC42F1D3B1
:101AA00070BDFFF701FE01462046FFF7DFFF2671FC
:101AB000BFF35F8F0834AC42E4D370BD80050020D3
:101AC000880500200D4B1A68EFF3108172B6D2E83A
:101AD000CFCF0120BCF1000FF9D1C2E84C0FBCF10F
:101AE000000FF4D1BFF35F8F00221B68C3E88F2F74
:101AF00081F3108840BF0020002170476809002052
:101B00002DE9F04F2DED028B85B0EFF30583DBB2AD
:101B1000103B9A0818BF01224FF0010103F00300A7
:101B200018BFAF4DAF4B08BFAF4D00EB820253F86B
:101B3000226001FA00FB05F541539FEDA78B019050
:101B4000C3F804B02EE0B388180440F19280B37952
:101B5000002B40F0DC80B6F908100029C0F21D818E
:101B6000736901EB410103EBC103D3E90247B7F10C
:101B7000FF3F08BFB4F1FF3F0DD0019B05EB830190
:101B8000AB6A0A69D21AE31A934203D32B6A13EAA7
:101B90000B0F00D10C61284600F04AFBA042B9416E
:101BA000C0F2FB80B6F90830C5F83CB0002B0093BA
:101BB000C9DBD6F8149003EB430A284609EBCA07A1
:101BC000D7E9024800F034FBA04271EB0801BADB10
:101BD000B8F1000FC0F2C380D7E90431834A9342C1
:101BE00000F0ED807A88B6F9080092B242EA00402F
:101BF000984702460B4652EA030100F0B080002BE2
:101C000080F2D180B4EB020E68EB030839F93A3068
:101C1000C7E902E8002B96DB716903EB430201EB95
:101C2000C202D2E90270BE4578EB000C4FEA4302D3
:101C300089DBB4462CF8083F0BE031F93230A4467A
:101C4000002B0DDB03EB430001EBC0005A00D0E991
:101C50000270BE451A4478EB000001EBC204ECDAD6
:101C600029F83A30009BACF80030B38818043FF5EF
:101C70006EAF3369EFF3108272B6D3E8CF0F012154
:101C80000028FAD1C3E8401F0028F6D1BFF35F8FC8
:101C90004FF6FF74B0880023316900B2B480C1E808
:101CA0008F3F82F310889842FFF651AF0746A9464E
:101CB000746906F1080807EB470E04EBCE03D3E97D
:101CC0000250B6F90830C446002B13DBB246009729
:101CD00004E034F936309446002B09DB03EB43066D
:101CE00004EBC602D2E90271BD4270EB0101F0DAE9
:101CF0005646009FACF8007034F93E7024F83E3030
:101D0000002FD8DAB3794D46002B3FF424AF0023DF
:101D1000B371B6F9083006F10808591C3DD01946D0
:101D2000776903E080465A1C3FF417AF03EB430288
:101D300007EBC200B0F802C01C461CF4004F9E46E0
:101D400037F93230EED08C4280ED028B05D0A8F806
:101D50000030318927F8321034817146E3E739F8D1
:101D60003A3033813369EFF3108272B6D3E8CF0F84
:101D700001210028FAD1C3E8401F0028F6D1BFF3A3
:101D80005F8F7388316929F83A30009B7380002394
:101D9000C1E88F3F82F31088D5E640BF05B0BDECA7
:101DA000028BBDE8F08F2846CDE9022300F040FA0F
:101DB000029A039B10EB020E43EB010826E708464C
:101DC0000B69029198470028C9D00299D1E90023F4
:101DD00011E700BFAFF30080FFFFFFFFFFFFFFFF32
:101DE00000800B404409002000000B40011B001044
:101DF0002DE9F84F364C25692DB1BDE8F84F0A2181
:101E00003448FFF733BEDFF8E4800321404600F09A
:101E1000FDF90326C4F80C80FFF746FC4FF0504C48
:101E20002D4B267003442361DCF800300F216370D2
:101E3000636961801D834FF00405A3F878504FF06B
:101E40000505A3F890504FF00605A3F8A8504FF0F1
:101E500007050E214FF6FF7208274FF00A0EA3F870
:101E6000C0504FF001094FF00C0C4FF0020B4FF037
:101E7000090A0D204FF00B05A3F868111749A2803D
:101E8000A3F808E1A160A3F848B0A3F8F0A0A3F874
:101E90002051A3F838C1A3F85001A3F83090A3F85B
:101EA0006060A3F8D8701A800D4B3046C8F82070D7
:101EB0000C49DC60FFF74EFC49463046FFF734FC26
:101EC000094B0A211F640348BDE8F84FFFF7CEBD58
:101ED0004C05002068090020BC080020FFFF10000E
:101EE00044090020011B001000200B4000000B40A3
:101EF0000146F0B50069EFF3108772B6D0E8CF5F06
:101F00000124002DFAD1C0E8454F002DF6D1BFF3D2
:101F10005F8FB1F902E04C690EEB4E0CBEF1000F81
:101F20004FEACC0504EBCC0C3DDB605B002648801F
:101F30000869C0E88F6F87F31088BCF80200CCE90D
:101F400002230130C0F30E00012838BF0120059B99
:101F5000ACF80200CCF81030069B40EA0E40CCF8FA
:101F600014300B69EFF3108272B6D3E8CFCF01279C
:101F7000BCF1000FF9D1C3E84C7FBCF1000FF4D1E4
:101F8000BFF35F8F8B886353A1F804E00B69C3E84C
:101F90008F6F82F310880122CB68097803F5015313
:101FA0008A405A60F0BD00230A69C2E88F3F87F378
:101FB00010884FF0FF30F0BD03464089B0EB214F51
:101FC00037DD58690A1402EB420210B500EBC2007B
:101FD0001C69EFF3108C72B6D4E8CFEF0122BEF18A
:101FE000000FF9D1C4E84E2FBEF1000FF4D1BFF3BA
:101FF0005F8F428889B292B28A4207D000221B6961
:10200000C3E88F2F8CF31088002010BD42F40042EB
:1020100042800121002218699971C0E88F2F8CF34A
:1020200010881C78DA68084602F50153A14059600F
:1020300010BD0020704700BF2DE9F041861F41F11F
:10204000FF35B04271EB050338BF002682B038BFC0
:10205000354604460F4600F0F3F8301A65EB0103ED
:10206000012873F1000306DA2046394602B0BDE8C4
:10207000F04100F05BB900F0E3F8864265EB010146
:1020800000290ADB0021174B3246009316482B46E5
:102090000191FFF72DFF0028E6DB4FF0000C1348FD
:1020A000134A436A9D4204D8816AB142DCD29D4200
:1020B000DAD11368EFF3108172B6D3E8CF8F5FF0F7
:1020C000010EB8F1000FF8D1C3E848EFB8F1000FE6
:1020D000F3D1BFF35F8F1368C3E88FCF81F310880C
:1020E00020BFDEE7C51A00104C05002000000B40A1
:1020F0006809002038B504460D4600F0A1F84FF0FD
:10210000FF326FF00043201845EB0101824273EB70
:10211000010438BF1946BDE8384038BF1046FFF704
:102120008BBF00BF10B5044600F08AF84FF47A73F5
:102130004FF0FF3C6FF00042E4FB0301BDE81040AC
:10214000844572EB01033CBF60461146FFF774BF44
:102150002DE9F04306460D4683B0EFF30584E4B263
:102160003CB1274B586AA8421CD2002003B0BDE8FE
:10217000F083244FD7F80C9097F80080484600F081
:1021800057F808F1040859F828301B1A301A65EB83
:102190000101984271F1000111DB20BF184B586A10
:1021A000A842E2D39B6AB34203D3012003B0BDE847
:1021B000F083401B18BF012003B0BDE8F08300F09E
:1021C0003FF8864265EB01010029CADB0E4B384619
:1021D000CDE9003432462B46FFF78AFE011EC0DDF2
:1021E000074B5A6AAA4208D39B6AB34203D30548F5
:1021F000FFF7E2FEB5E7AA42F9D120BFF7E700BF3B
:1022000000000B404C050020C51A001010B4054B0F
:10221000054C064AA04214BF1846581C5DF8044BF2
:10222000FFF7C8B9F008002000800B40585F00108D
:102230000346416A0A46986A596A8A42FAD1704747
:10224000034B596A0A46986A596A9142FAD1704713
:1022500000000B40002806DB1A4A916A936A5B1A59
:102260009842FBD8704710B4164A536A1946946ACC
:10227000536A8B42FAD1001953F100034FF0000268
:1022800028BF0122A2B90F4A526A934203D90D49CD
:102290004A6A9A42FCD39A4207D10A4A02E0516A3A
:1022A000994202D1916A8142F9D35DF8044B70479B
:1022B000044B5B6A5A1C08BF1846EED04FF0FF3340
:1022C0001846E4E700000B4010B4174A536A9C46D6
:1022D000946A536A6345FAD1001959414FF00002DC
:1022E00028BF01220346CAB10F4B596A4B1C08BFD5
:1022F0000B4608D04FF0FF310B460B48426A8A422A
:10230000FCD38A4207D1084A02E0506A884202D1CF
:10231000906A9842F9D35DF8044B7047024A526ABA
:102320009142EAD8EDE700BF00000B40074A536A2C
:102330009942FCD8994207D1044B02E05A6A914273
:1023400002D19A6A8242F9D3704700BF00000B4065
:10235000F8B5054606200E4600F0E4F8002842D005
:10236000354A3648954214BF4FF080624FF0006204
:10237000334B344902601A608C6832EA0404FBD1A2
:102380002D4B4FF48071EB1AB3FA83F32E4A5B099D
:10239000062022F8131000F0C5F8C300B3FBF6F3D3
:1023A0000133DA0920D1402601216962AA622F6B2C
:1023B000FB0722D42B46002253F82C1F062003F5DE
:1023C000805422602F6300F0ADF840F20131032207
:1023D0008000B0FBF6F0EB6A83F0700303F07E033D
:1023E00023602963AA64F8BD4FF6FE718A421BD9A7
:1023F00022464FF6FF71154ED7E740F2013205F540
:1024000040531A636B6AAC6A062004EB831400F035
:1024100089F80F4BA402A3FB0023DB0A0021B4FBC5
:10242000F3F0FFF751FFC5E7C3F34503114603EB94
:1024300082161A46B9E700BF00800740002002401C
:1024400000300240000002406C090020C0FF3F0045
:10245000757B2B8F00EB400C4FEA8C0C0CF1804C01
:102460000CF5803CF0B51646DCF80420051FB2F5EB
:10247000803F38BF4FF48032EDB238BFCCF8042033
:10248000012D2AD94FF40067254C0CF540521760F6
:1024900054F82020B2B9DCF80020012D82EA46125F
:1024A00002F0E0020CF5805632602AD94FF4006148
:1024B00044F820304FF480330CF500521160CCF812
:1024C0000430F0BD6769B7FBF2FE0EF1010E0EEBB2
:1024D0004E0EBEF1030EFCD2DDE70129D2D103245A
:1024E0000CF540521460DCF80820D207FBD5DCF86C
:1024F00000200B4C82EA461202F0E0020CF58056F6
:1025000032600122DCF800504D4005F003053560D3
:1025100002FA01F1DCF808200A42FBD0C6E700BF4E
:10252000F8080020014B53F820007047F8080020FD
:1025300070B4039D04682D0345EA03451B4B002C32
:10254000B3FBF1F3B2FBF3F61FDB194A194B9042D0
:1025500014BF4FF480424FF40042174C1A6003F549
:1025600080531A60A36832EA0303FBD1212200F5ED
:1025700040530433016086601A600268002AFCDA66
:102580000822C5601A6070BC7047036803F03F03FF
:102590008B42DAD18368C3F30B03B342D5D1C3684E
:1025A00003F4EE23AB42D0D1EDE700BF001BB70030
:1025B000008005400020024000000240012300EBA3
:1025C0004000800000F1804000F58410416003600D
:1025D000704700BF0023DB8A002242E800F252026B
:1025E00001D4102118470421184700BF034AD2F82C
:1025F0002838002BFBD0BFF35F8F704700000E40E0
:102600000021044B044ABFF35F8F43F8041B93423D
:10261000F9D170470C080E402C080E4010B44FF44E
:102620008D704FF42A64064A064B07491460D06047
:1026300019605368002BFCDA5DF8044B704700BF4B
:102640000080044000A0044000B0FA00704700BFC2
:1026500008B50148FEF77AFF7C5F001038B5054CDD
:10266000054DAC4204D254F8043B9847AC42FAD32F
:1026700038BD00BF205D0010605D001010B4074839
:10268000074C084B084A094904601A608B6832EA13
:102690000303FBD15DF8044B704700BF00200240EC
:1026A0007F3BEFEF00300240F6FFF30300000240F3
:1026B000044BDB6CB3F5004F03D14FF48022024B87
:1026C000DA64704700001150002011504FF0E022F2
:1026D000044BD2F8881D0B43C2F8883D10EE30043D
:1026E000704700BF030330006FF06041044B054AA0
:1026F00019609368DB4333F06043FAD1704700BF41
:10270000003002400000024010B545F25320FFF7B0
:1027100061FFBDE8104003460420184710B545F29C
:102720005320FFF757FFBDE810400346012018472C
:10273000FEF7CEBF70B51449144C154D641AA6109F
:10274000442E324628BF44222846920003F0EAF97C
:10275000B4F5867F13D80F4AC6F1440112D02B1965
:10276000480803EBC000C3E9002208338342FAD1D2
:10277000CB0704D521F00103334445F82320064B51
:102780009D6070BD4323F8E70000001010010010A9
:10279000000000201101001000ED00E0002370B5E2
:1027A0002B4C82B0C4F88430FFF738FF0122294B4C
:1027B000DA63636C012BFCD10321264A244B11639D
:1027C0009C6B012CFCD10226052521460523224ABB
:1027D00022480096FFF7ACFE21462B46204A2148AE
:1027E0000095FFF7A5FE0022042031461E4BFFF79F
:1027F00031FE2146284600221C4BFFF72BFE00220B
:10280000082011461A4BFFF725FE00220920114629
:10281000174BFFF71FFE002206201146134BFFF750
:1028200019FE0022114B07201146FFF713FE04206A
:10283000FFF778FE00240F4BA3FB0035AD0CE0B290
:1028400029460134FFF7BAFE062CF8D102B070BD5C
:102850000000014000300140002F68590000054091
:10286000008C864700800540001BB70080D1F0082F
:10287000006CDC0283DE1B432DE9F04FC1F30A59E3
:1028800016461F4687B0A9F2FF38B9F1000F51D0A4
:1028900040F2FF74A1454DD00024C9F57F72033288
:1028A000201801EB025101F0F0F885A3D3E90023D1
:1028B00000F0EAFC0022844B04460D4600F0DAFDED
:1028C00048B1204629460022804B00F0A3FC044674
:1028D0000D46A9F2FE38B8F1000F20D03046394637
:1028E00000227B4B00F0B2FD40B1B8F1000F4FF079
:1028F000000010DB774907B0BDE8F08F304639465D
:102900000022754B00F08EFD814668B3B8F1000FD0
:102910004FF00000EEDB002107B0BDE8F08F32463B
:102920003B462046294600F089FC07B0BDE8F04F41
:1029300000F076BA01F0A9F861A3D3E9002300F012
:10294000A3FC0022604B04460D4600F093FD0028D6
:10295000C4D02046294600225C4B00F05BFCA9F263
:10296000FE3804460D46B9E73046394600F01AFAFB
:102970000B460246394630461F46164600F04AFCD2
:1029800082468B461A22CDE900AB00F0E9F900F04F
:1029900009FAC1F30A5340F2FF7C82468B464BB1E1
:1029A000634507D01A2BD5BFCA46824601F0004BBB
:1029B000A1F1D07B3946304600F0D8FC8146404634
:1029C00000F0B0FC02460B46CDE9022352465B46BE
:1029D00000F034FC06460F4600F0E4F902460B46D0
:1029E0003046394616461F46CDE9046700F012FC12
:1029F00006460F46DDE9000152465B4600F00AFC40
:102A0000DDE9022300F01AFC32463B4600F0EEFB03
:102A1000CDE90201484600F085FC22462B4600F035
:102A20000DFC06460F4600F0BDF982468B46304647
:102A3000394652465B4600F0EDFBDDE9022300F02B
:102A4000D5FB06460F46DDE9000122462B4600F085
:102A5000F5FB32463B4600F0C9FB00F0E1F9C1F35B
:102A60000A5440F2FF730D460646002C3FF443AF74
:102A70009C423FF440AFDDE9040100F077FC08FB25
:102A800009F959468144504600F070FC00EB0903F7
:102A90001C44002C0BDD40F2FE7294420BDD05F06D
:102AA000004545F0FF41002041F4E00123E700200C
:102AB00005F000411FE7002205EB035190191AE7CA
:102AC000EF39FAFE422EE63F0000E03F0000F03F03
:102AD0000000B0400000F07F0000B0C0012A2DE9E6
:102AE000F04706460F4600F0818002EBD2756D106C
:102AF000012D144666D09046002AB8BF02F10308A3
:102B00004FEAA808B8F1010F79D09146002AB8BF62
:102B100002F107094FEAE909B9F1010F6CD09246B9
:102B2000002AB8BF02F10F0A4FEA2A1ABAF1010FC0
:102B300068D0A2F120031F2B67D90022FFF7CEFF38
:102B400002460B4600F07AFB02460B461046194639
:102B500000F074FB1AF0010F02460B4605D0324616
:102B60003B4600F06BFB02460B461046194600F050
:102B700065FB19F0010F02460B4605D032463B4675
:102B800000F05CFB02460B461046194600F056FB6F
:102B900018F0010F02460B4605D032463B4600F0C6
:102BA0004DFB02460B461046194600F047FBED0769
:102BB00002460B4608D532463B4600F03FFB024634
:102BC0000B4601E002460B461046194600F036FB64
:102BD000E40702460B4605D532463B4600F02EFB85
:102BE00002460B4610461946BDE8F08702460B46E2
:102BF00010461946BDE8F08702460B46C4E7024678
:102C00000B46D0E702460B46AFE702460B469DE770
:102C100000292DE9F04716461F4604460D4680F26E
:102C20009280C3F30A53A3F2FF33002B28DBD3F1C6
:102C3000340325D44FF0FF32A3F1200802FA08F93B
:102C400002FA03F1C3F1200E41EA090122FA0EF95A
:102C500041EA09019A4026EA020227EA01010A43F1
:102C60000ED1342B3BD026FA03FC07FA0EFE4CEAB9
:102C70000E0C27FA08F04CEA000C1CF0010F2ED1C4
:102C800005F100410D46A04689463046394600F020
:102C90006DFB2B0D824602462DD040F2FF70834221
:102CA00029D0C5F31301214325D12A4AA3F2FF33CA
:102CB0005245B8BF52468242A8BF024602FB03F10A
:102CC00001F2FF33002B3BDD40F2FE7293423DDC0C
:102CD0000022214800EB01531946104609E03B460B
:102CE0003246204605F10041FFF792FF01F1004313
:102CF0001946BDE8F087BAF1000F16D00AF120039B
:102D0000402B15D8BAF1000F09DA42464B46002095
:102D1000114900F0B9FA80468946CAF100024046DE
:102D20004946BDE8F047FFF7D9BE00200A49E0E771
:102D300032463B4640464946BDE8F047FFF79CBD5A
:102D400000200021D5E7804689469EE70020034900
:102D5000CFE700BF00F8FFFF0000F03F0000F07F6A
:102D6000C1F30A53C3B110B540F2FF7E73450ED0D4
:102D70001344002B8C460BDD40F2FE718B420CDDC0
:102D800000200CF0004C4CF0FF4141F4E00110BD7C
:102D9000002001F0004110BD704700230CEB0251F0
:102DA000181810BDC1F30A53A3F2FF335A1C8C4606
:102DB0002ADB2DD0342B26DA012270B502210546FC
:102DC000C3F13304C3F1130E133B22FA03F302FAE7
:102DD0000EFE4EEA030EA4F1200002FA04F3C4F141
:102DE00020065B1921FA06F601FA00F001FA04F157
:102DF0004CEB0E0C30434A4260EB400E0EEA0C01E5
:102E000002EA030070BD7047002001F000417047E6
:102E100001F0004C4CF07F51002041F4401170470C
:102E2000F8B540F6FF73B3EB115F40D00022284B9A
:102E300004460D4600F0F6FAC8BB0022204629469B
:102E4000244B00F003FB064610B100202249F8BDD8
:102E500020462946FFF7A6FF00F088FA074600F053
:102E600061FA02460B462046294600F0D3F916A324
:102E7000D3E9002300F0E2F900F089FCC1F30A5322
:102E800040F2FF7405460A46002BE0D0A342DED094
:102E90003B44002B0EDD40F2FE718B420EDD02F052
:102EA000004242F0FF41304641F4E001F8BD00200D
:102EB0000021F8BD304601F00041F8BD701902EB69
:102EC0000751F8BDAFF30080EF39FAFE422EE63F1E
:102ED0000000B0C00000B0400000F07F2DE9F04FCE
:102EE00016461F4683B00022AB4B04460D4600F049
:102EF00073FA00287FD13B0DC7F30A59B346B84691
:102F000040F2FF7A0193B9F1000F40D020462946E4
:102F10000022A24B00F060FA00283DD0D14536D007
:102F2000019B534500F092801A4640F6FF739A4287
:102F300000F09180994AA9F2FF39B9F1000FC0F26F
:102F40000281C9F13409B9F1000F17DD4FF0FF33E9
:102F5000A9F1200C03FA0CFC03FA09F1C9F12000D5
:102F600023FA00F041EA0C01014303FA09F32BEACA
:102F7000030328EA01010B4340F0E58032463B465B
:102F80002046294603B0BDE8F04FFFF741BE0020C0
:102F9000814903B0BDE8F08FC5F30A532A46290DD5
:102FA00073BB002FA9F2FF3334DB002B53DBD3F1CB
:102FB000340350D44FF0FF32A3F1200002FA00F79F
:102FC00002FA03F1C3F12006394322FA06F7394326
:102FD0009A402BEA020228EA01010A433BD1342B32
:102FE00009D02BFA03F308FA06F628FA00F0334367
:102FF0000343D8072FD52046294603B0BDE8F08FFC
:10300000514540D1002F4FF0000020DA002103B0DD
:10301000BDE8F08F40F2FE31894517DDD3F134036E
:1030200014D44FF0FF31A3F1200401FA04F601FAA1
:1030300003F0C3F12005304321FA05F630439940EF
:103040002BEA010127EA0000014307D00020544980
:1030500003B0BDE8F08F00200021D8E7342B4FF0FB
:10306000000009D02BFA03F307FA05F52B4327FAE2
:1030700004F42343D907EAD502F0004242F0FF41AD
:1030800041F4E00185E740F6FF7081426DD1002FE9
:10309000A9F2FF3329DB002BD8DBD3F13403D5D4DD
:1030A0004FF0FF32A3F1200002FA00F502FA03F11B
:1030B000C3F12004294322FA04F529439A4026EA61
:1030C000020227EA01010A43C0D1342B46D026FA76
:1030D00003F307FA04F427FA00F023430343DA0763
:1030E0004FF00000B3D52F4953E740F2FE3291452F
:1030F000B1DDD3F13403AED44FF0FF32A3F12000A1
:1031000002FA00F502FA03F1C3F12004294322FA7E
:1031100004F529439A4026EA020227EA01010A43FC
:1031200099D1342B1DD026FA03F307FA04F427FAB9
:1031300000F023430343DB074FF000007FF566AF49
:103140004FF0004125E7002A80DB32463B4620460F
:10315000294603B0BDE8F04FFFF78EBB00201149B0
:1031600017E700204FF0004113E7019951450BD0BC
:10317000019981427FF4DFAE40F2FE3293424FF07C
:1031800000007FF764AF41E740F2FE3293424FF018
:1031900000007FF73BAF5AE70000F03F0000F0BFB0
:1031A0000000F07F0000F0FF86B003B451FC08047B
:1031B000CDE9020151FC0904CDE9040151EC0A04F6
:1031C000CDE9060103BCF047BDE800504EEC00C459
:1031D000BDE800504EEC01C4BDE800504EEC02C406
:1031E00000BD000000B5FFF7DFFF02E010FE30F485
:1031F000F8D441EC100443EC112400EE010410EE6D
:10320000010480EE200451EC1004704700B5FFF774
:10321000CBFF02E010FE30F4F8D441EC100443EC94
:10322000112400EE010410EE210480EE200451EC84
:103230003004704700B5FFF7B7FF02E010FE30F42E
:10324000F8D410B541EC100443EC112451EC040403
:1032500053EC0524A0FB024C5FF0000EE0FB03CE14
:10326000E1FB02CE4CEC20440024E1FB03E444ECFF
:1032700030E480EE200451EC5004BDE8104070476B
:1032800000B5FFF791FF02E010FE30F4F8D441ECF6
:10329000100443EC112451EC2104A0FB01126FEA4D
:1032A000820252FB100052FB12F252FB1000A0EB04
:1032B000D07C53EC04245CFB13F153EC1524A1FBEC
:1032C000022001FB030053EC4424A2EB000050FB5E
:1032D0001CF24FEA111312EB017043EBE27140EA6A
:1032E000515020EA915020F0070053EC7524A0FBC8
:1032F000023C53EC752400FB03CC01FB02CC53ECE5
:103300000424ACEB824C40EA5C70A0F1010041EC7B
:10331000400480EE200451EC7004704700B5FFF7C4
:1033200043FF02E010FE30F4F8D440EC700400EEED
:10333000010410EE210480EE200451EC30047047AB
:1033400000B5FFF731FF02E010FE30F4F8D440EC96
:10335000600400EE010410EE210480EE200451EC24
:103360003004704700B5FFF71FFF02E010FE30F495
:10337000F8D441EC800400EE010410EE010480EE6C
:10338000400410EE1304704700B5FFF70DFF02E094
:1033900010FE30F4F8D441EC800400EE010410EE8D
:1033A000010480EE400410EE3304704700B5FFF7CF
:1033B000FBFE02E010FE30F4F8D441EC100443ECC4
:1033C000112400EE010410EE3004C0F300707047C9
:1033D00000B5FFF7E9FE02E010FE30F4F8D441EC4E
:1033E000100443EC112400EE010410EE3004C0F38D
:1033F0008070704700B5FFF7D7FE02E010FE30F492
:10340000F8D443EC102441EC110400EE010410EE5A
:1034100030F48CBF01200020704700BF00B5FFF7DB
:10342000C3FE02E010FE30F4F8D443EC102441EC6B
:10343000110400EE010410EE30F42CBF0120002036
:10344000704700BF00B5FFF7AFFE02E010FE30F49A
:10345000F8D441EC100443EC112400EE010410EE0A
:1034600030F42CBF01200020704700BF00B5FFF7EB
:103470009BFE02E010FE30F4F8D441EC100443EC63
:10348000112400EE010410EE30F48CBF0120002066
:10349000704700BF404261EB410140F2F334B1FAA2
:1034A00081F20C2A0CD2153211FA02F3C2F1200279
:1034B000D04021FA02F12244584141EB02517047B9
:1034C00069B1C2F12B0230FA02F3C2F1200291403D
:1034D00090401943A4EB020201EB02517047010036
:1034E0004FF00000A4F12004D9D17047012767F301
:1034F0001F5117FA03F817D0A0FB080701FB08714A
:10350000A1FB06785FEAD8469219A6FB047806FB71
:103510000588090351EA1051D7EB003061EB08012F
:10352000A94238BF70470BE00C33012717FA03F8A4
:103530000FD0A0FB080701FB0871A94238BF7047F4
:1035400008BFA04238BF7047001B61EB0501013284
:10355000704703F1200311FA03F6D3F12003D8409A
:10356000D940304370470000000000000000000018
:103570000453B1086018850FC8E5F22A6E07271EAC
:103580000D12B2210412572F12557CBCDA30723F53
:1035900017A717A55531994E9D0DBF0AEEE0AB5FF9
:1035A000E3EF6D9C7636AD6F697BCCE33D62BD7E0B
:1035B000F0810682F3FA428F37D5B78A5313C89E3B
:1035C0007FABB320491570AF000000000000000081
:1035D000025E88155580FF00907806B1A602FE01B4
:1035E000DC4E21F0EB88FB027A7C801F1615F80375
:1035F0003C5DA9D110A9F304AA466CF5C146EE05BD
:10360000FF65E4EB09F0E70613C00C9EC3A6E007D4
:10361000E1BFEC91C46CD808D5AF5EFFDC43CF09A5
:10362000466A72E4D72DC50A237E6E197B2CBA0B2D
:10363000BFF571648741AE0C61DFB88CB86EA10D27
:1036400009A9856DC5B5930E3153B1086018850F72
:103650003071E498359875105915550580FF0F00A5
:1036600009C3EB8F80FB2F00B1910E9A82F34F00BC
:103670001FE7FD2287E76F00C3A09A298FD78F002D
:103680004F4366AC9BC3AF00412A83A9ADABCF00CB
:103690004FB7B41EC68FEF00B6815F09E66F0F010A
:1036A000678589660E4C2F011A52DA3240244F0189
:1036B000483A9B6A7CF86E01FF81B709C4C88E0145
:1036C0009C8DBC0B1895AE017010DA6B795DCE0144
:1036D0003A3BE224E921EE0138739533427FECA0B6
:1036E0003114FAF5BD8689916B02FAE6E0F2918316
:1036F000E682120713A85177212621686AB2736AFD
:103700009D0DBF0AEEE0AB5F19B4E0B71CB66A547A
:103710009596E53DEF07A548D1CBE555DC0E4E3C2F
:10372000CE68ADE839B5A432CB3CFA96D9569A2882
:10373000C9B21CA1F9FCAE21864B6BE58AD2F0160A
:103740000453B1086018850F02C00C9EC3A6E007A1
:103750000000000000000000AC79CFD1F71772B173
:10376000293BAAB84FEAC12040F00040490043F18C
:10377000200340F20001C3F6F071C3F10B0320FAFD
:1037800003F038BF7047404261F1000170475FEAC3
:10379000D17CC1F30A53A3F2FF330C2B62DA13F18D
:1037A000200FDFDD2DE9F0413C4C70CC4FF00002E2
:1037B000FFF79CFE1CF0010F04D06FEA0202201AF2
:1037C00065EB010102F2FE3C40F2FE739C455CD2C7
:1037D0000A0F334B03EBC2030CCB02F03F0545F05D
:1037E0004005801A99410A0E2E4B03EBC20318CBF9
:1037F00002F580725543C01AA1414A0D2A4B03EBD2
:10380000C20318CB124402F5805205FB0255C01AC0
:10381000A1418A0252EA905242F1000282FB023434
:103820005B0D53EAC423C01841EB545184FB0234AE
:103830004FF0553383FB043454FB11F304EB930432
:1038400010EB440241EBE473E900A1FB0240C1FB31
:103850000301400A50EBC1504FEA512151EB0C518A
:10386000BDE8F081B3F5806F07D150EA01320CBF9B
:1038700021EAE17141F400217047002000211CF091
:10388000010F08BFC7F6F07170474FF000004FF00E
:103890000001A8BFC7F6F071BDE8F08158370010ED
:1038A00068350010C83500105836001040F200018D
:1038B000CFF6F0710020704750EA013218BF41F492
:1038C000002170477FEAA65540F019814FF48054DB
:1038D00020E18CEA11331B0640F0EE80BCF1000FB2
:1038E00067D1C90451EA5031C004B1FA81F4202CE7
:1038F0004BD20125A540A0FB052301FB0533A0FB0E
:1039000003C5A1FB02C6E1FB6356B2EB152263F1CE
:103910000003B2EB066273EB1623A0FB06C7A1FB04
:1039200005C8E1FB66784FF05535A7FB05C65FF08B
:10393000000CE8FB056C16EB0C064CF1000C12EBCE
:10394000963243F1000312EB8C4243EB9C3358FB5D
:1039500011F55FF0333755FB11F656FB17F8A5EB61
:10396000581756FB11F5C2F6802656FB15F507EBE6
:103970001537B2EB472063EBD751C4F58064A4F14F
:103980001504FFF78CFDBDE8F081B0FA80F410FA61
:1039900004F1A0FB01234FF00000B0EB132061F114
:1039A0000001C4F58064A4F13504FFF778FDBDE89B
:1039B000F081890451EA90318004404261EB410179
:1039C000B1FA81F4202C4ED2013C0125A540A0FB88
:1039D000052301FB0533A0FB03C5A1FB02C6E1FBE8
:1039E000635612EB152243F1000312EB066253EB10
:1039F0001623A0FB06C7A1FB05C8E1FB66784FF0C4
:103A00005535A7FB05C65FF0000CE8FB056C16EB0F
:103A10000C064CF1000C12EB963243F1000312EB52
:103A20008C4243EB9C3358FB11F55FF0333755FB69
:103A300011F656FB17F805EB581756FB11F5C2F6B1
:103A4000802656FB15F507EB153712EB472043EBA5
:103A5000D751C4F58064A4F11504FFF720FD41F0AF
:103A60000041BDE8F081B0FA80F410FA04F1A0FB47
:103A700001234FEA1320C4F58064A4F13504FFF755
:103A80000EFD91F00041BDE8F0815FEA410CBFF40A
:103A90000DAF5FEA5C5C3FF409AFACF2FF3CBCF5F4
:103AA000806F3FF409AF012262F31F512DE9F0410D
:103AB000BCEBEC7F3FF40DAF0C0C4E4D05EBC40599
:103AC00095E80C0002F03F0505F14005A5FB000656
:103AD00005FB01616FEAE14404F01F04464D05EB6C
:103AE000C40560CD521943EB060304F58074A4FBB2
:103AF000000604FB01667FEA26643FF4E3AE3F4D17
:103B000005EBC40522CD521843EB050341F2010534
:103B100005EB44046404A4FB0050C4EBC401E4FBC3
:103B2000060180EAE17481EAE175A5FB0567A4FB63
:103B300005487F084FEA360616EB080647F10007EE
:103B40008C0254EA905444F10004801B61EB07019D
:103B500054FB14F555FB14F655FB15F74FF055348F
:103B600056FB14F6B6EB173610EB860041EBA67148
:103B7000101A63EB0101224A24CA1CF1010C0BDD6F
:103B8000A2FB0C230024E5FB0C34121A8B4164F1D8
:103B900000045FF080410CE0DCF1000CA2FB0C2380
:103BA0000024E5FB0C3482184B4144F100045FF023
:103BB00040414CB91C0013000022B1F100711CB946
:103BC0001C000023B1F10071B4FA84F5A5F11D06C3
:103BD000A1EB0651AC4013FA05F0C5F12005EB400E
:103BE0001C43EA401043C00A50EB445041EBD4213F
:103BF000BDE8F08158360010C83500105836001066
:103C000058370010704700BF2DE9F04F83B0994638
:103C1000DDE90DAB0F9B884611469A07074616D182
:103C2000DA453AD20C460D46ABEB0A060E44224664
:103C30004B46414620200134B847B442F7D12946CB
:103C4000BAF1000F08D1204603B0BDE8F08F0C4652
:103C5000BAF1000F10D00E4655460C9B2E449A44E4
:103C60000191721B4B46013D41461AF8010D344645
:103C7000B847002DF5D101990F9B9B07E3D5651A35
:103C8000AB45E0D922464B46414620200135B84796
:103C90005D4504F10104F5D3D5E7BAF1000FDAD19F
:103CA0000C46D0E72DE9F04F0F9FDDF824E017F028
:103CB000020F0A9C9DF82C900E9DDDE90C8629D1FF
:103CC000002D6FD1B44225D2202C07F0010B00F05B
:103CD000128104F1FF3C4FF0300AF44401E0202C43
:103CE0007AD00134A6420CF801AFF8D8BBF1000F2E
:103CF00010D0AC420ED2202C74D004F1FF3C4FF017
:103D0000300AF44401E0202C29D00134AC420CF8F4
:103D100001AFF8D117F0100F3AD017F4806F28D107
:103D20001CBBB8F1100F00F0CA80B8F1020F00F010
:103D3000D48030248EF800400124B9F1000F67D1FF
:103D40007E0740F1AA802B260EF804600134CDE9ED
:103D50000B57CDE909E4BDE8F04FFFF755BFFC066E
:103D600040F189807C0535D42024A6426AD0AC423B
:103D700068D0B8F1100F00F08780B8F1020F5AD068
:103D8000202CE4D0264601344FF0300C0EF806C04B
:103D9000202CD2D1CDE90B57CDE909E4BDE8F04F95
:103DA000FFF732BF17F0010B3ED0B9F1000F47D13A
:103DB00017F00C0F44D1B4429BD2202C89D1202D76
:103DC00010D8FC0657D57C0555D4202E00F0B980BC
:103DD000202D10D02024CCE7BBF1000F00F0A580EF
:103DE000202DBCD9FC0646D57C0544D4202E00F0FD
:103DF000A880202D3FD12C461F26B8F1100F7FD070
:103E0000B8F1020FC0D14FF0620C0EF806C0B7E750
:103E10002D260EF804600134CDE90B57CDE909E4F5
:103E2000BDE8F04FFFF7F0BEB442BFF473AF202CF3
:103E30007FF44FAFD6E7202C89D026460134E2E745
:103E4000013DB8E7661ED8D1B8F1100F64D0B8F1C3
:103E5000020F7FF46EAF62268EF800603026444673
:103E60008EF80160B9F1000F3FF46AAFD0E7B8F106
:103E7000100F7FF46CAF2024CDE90B57CDE909E496
:103E8000BDE8F04FFFF7C0BEBE060ED4202CF2D026
:103E900078260EF80460013472E73E077FF557AFCD
:103EA00020260EF80460013451E7202CE3D04FF0B7
:103EB000580C0EEB040686F800C0013460E7BE061D
:103EC00017D558248EF8004030248EF80140022483
:103ED000B9F1000F3FF434AF9AE762248EF8004046
:103EE00030248EF801400224B9F1000F3FF428AFCE
:103EF0008EE77824F2E7BBF1000F7FF462AF71E741
:103F000017F0200F0CBF4FF0780C4FF0580CA61E86
:103F10000EF806C0013C35E7BC06EAD558248EF8F9
:103F2000004030248EF80140DDE717F0100F3FF419
:103F30000EAF17F4806F9AD1202E7FF418AF1F2692
:103F40005BE734461F2658E700B9704701F08ABA8C
:103F500010B1D1E900311847704700BF00000000E0
:103F60002DE9F04F9FB09DED287BDDE92AA558ECA7
:103F7000177B83461E460D91109243463A463846BB
:103F800041468DED087B2C9CFFF714FA002840F089
:103F9000D880384641464FF0FF32754BFFF76AFA3A
:103FA000002840F0CE80384641464FF0FF326FF493
:103FB0008013FFF723FA002840F0C380DDE908787A
:103FC0000022384641460023FFF718FA002840F047
:103FD000C081CDE90A78DDE90A2390461F4614F432
:103FE000806308BF4FF0060A139304F4006258EA96
:103FF0000703119240F0C080002A00F0A2819FEDDB
:104000005A7B00278DED0E7B4FF00009BA45CCBFDF
:10401000AAEB070A4FF0000A4F46C8BF0AF1FF3A61
:1040200044F480644D4594BF4FF00008A5EB0908A7
:1040300014F00203119304D0B9F1000F18BF4FF030
:1040400000083FB1DDE90A01DDE90E23FFF71CF9A5
:10405000CDE90A01DDE9080100220023FFF7CEF9CE
:1040600030B1DDE90A01024601F10043CDE90A233E
:104070009DED0A7BCDE902A8DDF834A024F40063AD
:1040800004938DED007B334651465846109A00F05C
:1040900097F98046B9F1000F4FD014F0200F024677
:1040A00000F1010433460CBF652045205146D84736
:1040B00009F1FF3087EAE77C0DF1580900224B46F1
:1040C000DFF8B080ACEBE77C4FEAD77E01E0202A36
:1040D00010D0E246A8FB0C71C90801EB8107ACEBDC
:1040E00047073037BAF1090F8C4602F1010203F895
:1040F000017BECD805230590069300200A230D9F31
:10410000CDE90330CDE9012E3346224639465846E3
:10411000CDF80090FFF7C6FD119B80466BB1109B58
:10412000C41AA54209D942463346394620200134F3
:10413000D847A54208F10108F5D840461FB0BDE8B0
:10414000F08F9DED087B33465846109A0D998DED02
:10415000287BCDE92B54CDF8A8A01FB0BDE8F04FC7
:1041600000F02EB9AFF30080000000000000000056
:10417000FFFFEF7FCDCCCCCCC7F30A50A0F2FF30CD
:10418000FFF7D0F88AA3D3E90023FFF757F88AA3F3
:10419000D3E90023FFF72AF8C7F31307CDE90E018F
:1041A00047F07F51404600227B4B41F44011FFF71E
:1041B00031F86BA3D3E90023FFF740F802460B4622
:1041C000DDE90E01FFF712F8FFF7D0F80746FFF719
:1041D000A9F865A3D3E9002380468946FFF72EF8A6
:1041E00000226E4BFFF702F8FFF7C0F8034649467E
:1041F000404612935EA3D3E90023FFF71FF88046E1
:1042000012988946FFF78EF85BA3D3E90023FFF7E6
:1042100015F802460B4640464946FEF7FBFF0246AC
:104220000B4680468946FFF709F842464B46CDE9E2
:104230000E0140464946FEF7D9FF0022CDE91401A0
:10424000DDE90E01564BFFF71FF80022554BFEF734
:10425000CDFF02460B46DDE90E01FFF715F80022FF
:10426000514BFEF7C3FF02460B46DDE90E01FFF797
:104270000BF842464B468046894600204FF080416D
:10428000FEF7C8FF02460B4640464946FEF7AEFF22
:1042900002460B46DDE91401FEF7F6FF0022434B10
:1042A000FEF7A4FF129B002203F2FF3C4FEA0C53DF
:1042B000FEF7C4FF80468946DDE90A0142464B46C7
:1042C000CDE90E89FFF79AF868BB4346494607F1E6
:1042D0006302C62A119A8CBF4FF005094FF00409FA
:1042E000002A3FF49FAE0B433FF48EAEDDE90A0196
:1042F00023A3D3E90023FFF7A9F848B1DDE90A01B8
:1043000021A3D3E90023FFF779F800287FF47CAEDE
:10431000BAF1000F3FF486AE139B002B3FF482AE40
:104320000AF1FF3A7EE600221E4B40464946FEF760
:10433000ABFF0A4601460346CDE90E12013F114686
:10434000C5E79FED137B17464FF004098DED0E7BFB
:1043500068E608F100430A970B933CE6AFF3008050
:1043600061436F63A787D23F71A379094F930A40D6
:104370001655B5BBB16B0240EF39FAFE422EE63F4F
:104380002D431CEBE2361A3F0000000080842E41D2
:1043900000000000000000000000F83F0000E03FC7
:1043A00000002C4000002440000018400000F03FB6
:1043B000FB799F501344D33FB3C8608B288AC63F14
:1043C0002DE9F04F97B0DDE92089CDE90401DDE961
:1043D000224BCDE90623404642464B464946DDF88E
:1043E00090A0FEF7E7FF002840F0C581404649460F
:1043F0004FF0FF326FF48013FFF700F8002840F011
:104400001D81404649464FF0FF32C14BFFF732F85D
:10441000002840F0E380B8A3D3E900234046494692
:10442000FFF728F8002840F0CB80B5A3D3E900239C
:1044300040464946FEF7E2FF002840F0C180404672
:10444000494600220023FEF7D9FF002840F0E08013
:104450001AF480650D9000F0E980092C40F29681F5
:104460000EAB1A460C9330210023A4F10905013349
:10447000202B02F8011BA4EB030600F03A81AB42AB
:10448000F5D19FED9D7B8DED087B49464046FEF7BB
:104490006DFF0446FEF746FF02460B46404649467E
:1044A000FEF7B8FEDDE90823FEF7C8FE02460B461C
:1044B000CDE90A23FEF76CFF0746FEF745FF0246EB
:1044C0000B46DDE90A01FEF7A5FE02460B46CDE9E3
:1044D0000A2300228F4BFEF7CDFF002800F0DB807F
:1044E00001373846FEF730FFDDE90823FEF7AEFF5F
:1044F00008B100270134002E40F0B1802046FEF7BD
:1045000011FF02460B4640464946FEF783FE002255
:10451000804B06460F46FEF771FF40B930463946DC
:1045200000227C4BFEF7A6FF002800F015810C9BB3
:10453000691E7948194410E080FB0462C3EBA203B2
:1045400003EB8302A4EB420404F1300201351C4664
:1045500001F8012F002B00F0AB80202D4FEAE4730F
:10456000EAD10AF00303012B1CD1BBF1000F19D0D3
:104570000D9B002B40F0F9801AF00C0F40F0F580F5
:10458000AB4540F2D380202D0BD030220C996B1E0E
:104590000B4401355D4503F8012F00F08D80202D7F
:1045A000F7D12025DDE90623DDE904010C9CCDE9E6
:1045B00002BA01950094FFF727FB17B0BDE8F08F12
:1045C000CDE92089DDE90623DDE90401CDE923BA3F
:1045D000229417B0BDE8F04FFFF7C2BC4F4DCDF8A5
:1045E0008CA00AF0040ABAF1000F4D4C18BF2C46FB
:1045F000DDE90623DDE9040120940CBF0324042433
:10460000CDF888B0219417B0BDE8F04FFFF7FCBAA1
:104610004B46424600200021FEF7FCFD01231AF420
:104620008065804689460D937FF417AF9FED367BFA
:104630000EAB06268DED087B0C9326E70424DDE9FE
:104640000623DDE90401374DCDF88CA0CDF888B004
:104650002095219417B0BDE8F04FFFF7D5BA0C9B19
:10466000681EDFF8C4C018440DE0ACFB0721C90880
:1046700001EB8102A7EB42023032092F00F8012F33
:1046800027D90F461D46202D05F1010306F1FF36FF
:10469000EBD120254BE70022DDE90A011D4BFEF797
:1046A000ADFE00287FF427AF002F5AD1013722E753
:1046B0000AF00303012B75D0202D3FF473AF0D9B3F
:1046C000BBB32D2205F158036B4403F8202C0135B0
:1046D00068E7202BDDD0AEB30C9A1E44154430227F
:1046E00001E0B3422ED00133202B05F8012FF8D181
:1046F000CFE71D46C5E600BF0000000065CDCD41F7
:104700000000000065CDCDC10000000080842E4176
:10471000FFFFEF7F0000E03F67666666D05F001036
:10472000D85F0010E05F0010CDCCCCCC202D3FF442
:1047300039AF1AF0040F0DD11AF0080F3FF432AF61
:104740002022BFE72E2103F158026A4402F8201C00
:104750005D1CECE62B22B5E7E3077FF5E8AE0134FC
:10476000E5E6FA077FF5C7AEA0E70BF1FF3BAB45E7
:104770003FF609AFA0E70324DDE90623DDE90401E4
:104780000A4DCDF88CA0CDF888B061E7084B2646DD
:1047900003EBC40393ED007B0EAB8DED087B00258E
:1047A0000C9372E6BBF1000F86D0E1E6DC5F0010EF
:1047B000506100102DE9F04F9A469BB0249C964D15
:1047C0000B94964C0B1E18BF834625609AF8000088
:1047D000934C0A9308BFA3460992002800F0BC82BC
:1047E0004FF000090AE04A46099B0A9909F10109BC
:1047F000D8479AF80000002800F0CE8025280AF15A
:10480000010AF0D10023524612F8010BA0F1200159
:1048100010290AD8DFE801F04009093C0909090913
:1048200009090938093409093000A0F130010929C2
:1048300040F28C802A2800F0F58000210C912E286F
:1048400000F099800027A0F1680112292DD8DFE837
:1048500011F057012C0051012C0045012C002C00B7
:104860002C002C002C002C002C0027002C002C00ED
:104870002C002C002C002700924643F00103C2E7D5
:10488000924643F00203BEE7924643F00403BAE7C0
:10489000924643F01003B6E7924643F00803B2E7AE
:1048A0009AF8010043F4807301326728924600F2BF
:1048B0008280242840F2C680A0F12502422A00F21C
:1048C000C180DFE812F05F01BF00BF00BF00BF0082
:1048D000BF00BF00BF00BF00BF00BF00BF00BF00E0
:1048E000BF00BF00BF00BF00BF00BF00BF00BF00D0
:1048F000BF00BF00BF00BF00BF00BF00BF00BF00C0
:10490000BF00BF00BF00260145012601BF00BF0058
:10491000BF00BF00BF00BF00BF00BF00BF00BF009F
:10492000BF00BF00BF00BF00BF00BF00D301BF007A
:10493000BF00BF00BF00BF00BF00BF00BF00BF007F
:10494000D3016701D301260145012601002100E0C2
:10495000013201EB810100EB410110789246A0F198
:104960003004092CA1F13001F2D92E280C9102F16A
:1049700001027FF467AF9AF801001146A0F13006FA
:10498000092E43F4806340F231812A2800F03E81F1
:1049900092460027013256E74C46099B994501D3C0
:1049A00003F1FF394A460020099B0A99D84720465F
:1049B0001BB0BDE8F08FA0F16902D2B20F2A41D836
:1049C000012649F2410196400E4040F001810A2A39
:1049D0003FD0072A36D10B9C54F8042B002A00F054
:1049E000288143F021010DF1480E704603E0202E8E
:1049F00000F029811A4602F00F052B46092D94BFBD
:104A0000303337330F2A00F8013B06F101064FEA35
:104A10001213ECD817E100BFB54700102809002099
:104A2000053C00100B9C9AF8010054F8045B924678
:104A3000002DBDBF694243F002030C910C950B940D
:104A40000132FCE64A46099B0A9909F10109D84757
:104A5000CFE60B9951F8048B98F800201046002FF0
:104A600040F0E18072B16FF0010C0CF1010C464690
:104A7000C44401E0664503D016F8014F002CF9D17B
:104A8000A6EB080613F4806C02D0BE4228BF3E4657
:104A900013F0020400F08781002A00F02B81BCF1A2
:104AA000000F00F041810B940D964A46DDE9095450
:104AB0000E464F4408E02B462146D84718F8010F10
:104AC00009F1010910B14A464F45F4D131460B9C1A
:104AD0000D9E002C40F00E810B918AE69AF80100A1
:104AE0006C287FF4DFAE9AF8020043F440730AF1B9
:104AF0000302DAE69AF8010043F400730132D4E6C7
:104B00009AF80100682800F0208143F08003013208
:104B1000CBE6672800F0E780472800F000814528B1
:104B200000F0FF800B9C04930C9B0734CDE90273CB
:104B300024F007031C46DDE90931F4E802674A4620
:104B40005846CDE900670B94FFF70AFA814650E614
:104B500046280B9C08BF43F0200304930C9B0734AA
:104B6000CDE9027324F007031C46DDE90931F4E8BE
:104B700002674A465846CDE900670B94FFF720FCD0
:104B8000814636E64A462520099B0A9909F1010922
:104B9000D8472EE60B9A9C0702F1040709F101069B
:104BA00040F1E6801078099B4A460A99D8470C9B49
:104BB000012B40F22C81DDE90954994432462B4601
:104BC000214620200136D8474E45F7D10B9710E6F5
:104BD0006F2800F08B8040F26581782800F0088112
:104BE0004FF00A0823F01003C44647E0002707EB04
:104BF000870700EB4700A0F1300711F8010FA0F183
:104C00003002092AF3D98A464A1C1CE60B9C9AF802
:104C1000020054F8047B0AF1020A0AF101020B9423
:104C200027EAE7770FE6002A3FF42CAF07F1FF3CB5
:104C30001BE723F0100113F4806241F021013FF4DF
:104C4000D2AE0DF1480E08231020059300234A46EA
:104C5000CDE9023006915846DDE90931CDE900E69B
:104C60000497FFF71FF80B948146C2E5582879D0C6
:104C7000622840F051824FF00208C44613F480606D
:104C80006DD123F00C0313F4007240F0C2800B9935
:104C900004310D9113F4807140F02E825E060B9A60
:104CA00040F1AA801278002A40F0DA8023F0100345
:104CB000002800F0D58011460DF1480E06930C9B9C
:104CC000CDF80CC0CDE90473019100234A4602934C
:104CD0005846DDE90931CDF800E0FEF7E3FF0D9B12
:104CE00081460B9385E543F400631BE74FF008080A
:104CF000C446C3E70C9B4C46B3427FF6EDAE0F466D
:104D00004B44A3EB0609DDE90965224633462946F3
:104D100020200134D8474C45F7D13946DCE643F42E
:104D2000006343F02003FDE60F460B94DDE90954D0
:104D30004A462B462146D84718F8010F09F10109C8
:104D40000028F5D139460B9CC3E69AF8020043F0DF
:104D5000C0030AF10302A8E5044681461DE623F0DC
:104D60000D0390E74FF0100843F02003C44685E799
:104D70000C9B012B45D9DDE909544E4609F1FF385A
:104D8000984432462B46214620200136D8474645D6
:104D9000F7D10C9B324699440B9B1878DDE9093119
:104DA000D8470B9725E50C9BB34240F2EE81CDE945
:104DB0000D48DDE9095488464B449E1BCDF82CC0B4
:104DC0004A462B462146202009F10109D847B14522
:104DD000F6D14146DDF838800C9BDDF82CC00D9CE7
:104DE00098F800205E1C1046002A7FF458AE73E647
:104DF0004FF01008C44641E71D064CBF12881268E8
:104E000051E713464A461878DDE90931D847B146DB
:104E1000DCE60B9C073424F007042246656852F850
:104E2000084B0B9254EA050240F02C8123F010034A
:104E3000002800F0278100260DF1480E06930C9BF8
:104E40004A46CDE904730023CDE900E6CDF80CC055
:104E500002935846DDE90931FEF724FF8146C8E494
:104E600013F0200F14BF412061200DF1480E76464B
:104E7000A0F10A0803E020293FF420AF2246B2FB4C
:104E8000FCF40CFB1425E8B2092D00F130058ABFB3
:104E90004044E8B2C0B2624506F8010B01F10101DD
:104EA000E9D20BE723F0100269280D9240F06F81E0
:104EB00013F4806204D04FF4806223F011030D9349
:104EC0000D9B13F4007640D10B9B03F104080D9B5E
:104ED00013F4807040F09880590640F1C6800B9B17
:104EE00019780C46CB0F002900F0B98022460DF14D
:104EF000480E74461646DFF8A0C201E020280FD005
:104F00003546ACFB0621C90801EB8102A6EB420243
:104F10003032092D0E4600F1010004F8012BEDD8C6
:104F20000D9ACDE9010306920C9ACDE904720A2389
:104F30004A4603935846DDE90931CDF800E0FEF713
:104F4000B1FECDF82C80814653E40B9C073424F04D
:104F5000070421460846636850F8081BDC0F0B90D5
:104F600051EA030000F0C3800A46191E48DB1346CD
:104F70000DF1480EF4460026CDE90E94DFF81882B4
:104F800001E0202E2DD05A1842F10002A8FB025950
:104F900029F0030505EB9905521B1C469B1A61F18C
:104FA000000508464FF0CC3101FB03F108FB051169
:104FB000A3FB08531944052305F00109A9FB033994
:104FC0009B180A2C03F130034FEA550570F10000DD
:104FD0000CF8013B06F1010645EAC1734FEA5101A5
:104FE000CFD2DDE90E940D9B4A4606930C9BCDE98A
:104FF0000164CDE904730A23CDF800E0039328E7A8
:10500000524261EB4101B2E70B9B1968CB0F0029BB
:1050100000F0AB8081EAE172A2EBE1720DF1480E83
:105020007046DFF874C101E0202E10D01546ACFBAD
:105030000241C90801EB8104A2EB440404F13002EF
:10504000092D00F8012B06F101060A46ECD80D9A4D
:10505000CDE9016306920C9ACDE9047267E7002A54
:105060003FF445AF0DF1480E5AE713F0800F0B9B4C
:1050700000F08180B3F9001081EAE174A4EBE174DF
:10508000A4B22FE713F0200F14BF412261220DF1CB
:10509000480E0A3ACDE90D97CDF844B00026774680
:1050A000F3469146CDE90F3C03E0202E17D004468D
:1050B0000D46294642460023204600F025FED2B286
:1050C000092A02F1300388BF02EB09034445DBB231
:1050D00075F1000507F8013B06F10106E5D2DE4651
:1050E000DDE90D97DDE90F3CDDF844B0A6E6002AC6
:1050F00047D1134611463BE70B990968A1B923F044
:10510000100388B10DF1480E06930C9BCDF80CC02E
:10511000CDE904730192D8E513F480627FF4CBAE3D
:1051200023F010030D93CBE613F0200F14BF4120A2
:1051300061200DF1480E7646A0F10A0802E0202A0F
:10514000E2D02146B1FBFCF40CFB1415E8B2092DAA
:1051500000F130058ABF4044E8B2C0B2614506F8AC
:10516000010B02F10102EAD2CEE7002A3FF456AF6A
:105170000DF1480E6BE7196881EAE174A4EBE17464
:10518000B0E600260DF1480E2DE701362BE64FF074
:105190000A081346C44671E5CDCCCCCC70B5944614
:1051A0001E4605460C4684B04FF0FF32634602A906
:1051B00000960348CDE90254FFF7FCFA04B070BD35
:1051C000513F001010B5094B84B01C684CB1034628
:1051D00000914FF0FF3203A90548A047012004B019
:1051E00010BD00F081F9204604B010BD2809002050
:1051F000493F001000BEFDE708B5FFF7FBFF00BF09
:1052000038B5064C064DFDF729FAAC4204D254F8E5
:10521000043B9847AC42FAD338BD00BF605D001034
:10522000685D00100368084611461847437D2DE964
:10523000F04781460F461646002B43D0002A3BDD3F
:10524000037D00204D1E014615F8012FDFF88480F4
:105250000A2A01F101040ED0A6421CD02B78214667
:10526000A3F10D03B3FA83F315F8012F5B090A2AA2
:1052700001F10104F0D1002BEED18142A1EB00013C
:1052800038441BDC02214046D9F800309847A6423A
:1052900008D02046E2E7864204DD311AD9F8003012
:1052A00038449847374417F8013CA3F10D03B3FA8B
:1052B00083F35B0989F81430BDE8F087D9F8003032
:1052C0009847DFE73846D9F800301146BDE8F04787
:1052D000184700BFA06100100B682DE9F041802B3A
:1052E0000D46064605D05A1C2B442A601E71BDE8A7
:1052F000F0810F4B1C68A4B10E4F01F1040801E0CE
:10530000246974B12368002BFAD03B680BB1A34227
:10531000F6D1204641462A68FFF788FF2469002C11
:10532000F0D1002301222B442A601E71BDE8F081D8
:1053300020090020240900202DE9F04782B00D4605
:10534000924699460746FCF77BFF4FF0FF366FF019
:1053500000442F4A821841F10003964274EB030186
:105360003CBF324623462B4800F0D6FC6B1C8046DF
:1053700003D1384600F04CFC0546274B274E1C68ED
:10538000274BB9F1000F18BF1E46B4B1BAF1000F98
:105390001AD1DFF8909001E0246974B12368002BE2
:1053A000FAD0D9F800300BB19C42F5D120462A46FC
:1053B0003946B0472469002CF0D1B8F1000F1FD155
:1053C000284602B0BDE8F0874FF00A0ADFF8549093
:1053D00002E02469002CF0D02368002BF9D0D9F822
:1053E00000300BB1A342F4D12A4639462046B047DB
:1053F000012220460DF107018DF807A0B047E8E72C
:10540000044800F085FC284602B0BDE8F08700BFE4
:1054100040420F0080050020200900202552001086
:105420002D520010240900200A4A13684BB1834210
:1054300002D109E0984207D003F110021B69002B4A
:10544000F8D101B1106070470029FCD103691360E5
:10545000016170472009002008B500F0A5F901207E
:1054600008BD00BFF0B583B006468DF80700FCF715
:10547000E7FE4FF0FF356FF00044174A821841F104
:105480000003954274EB03013CBF23462A461348B0
:1054900000F042FC124B07461C689CB1114D01E024
:1054A00024697CB12368002BFAD02B680BB19C4295
:1054B000F6D1204601220DF10701FFF7B7FE24695E
:1054C000002CEFD117B9304603B0F0BD034800F00F
:1054D0001FFC304603B0F0BD40420F0080050020A5
:1054E000200900202409002038B5044600F090FB74
:1054F000012305461A4620462946FFF71DFF084BA3
:105500001C682CB163682BB198472469002CF9D131
:10551000284638BD2469002CF4D1284638BD00BF88
:10552000200900202DE9F041A2B004460D46FCF709
:1055300087FE4FF0FF376FF00046274A821841F18F
:105540000003974276EB03013CBF3A4633462348BB
:1055500000F0E2FB00262B4607462246204801A920
:105560000196FFF71BFE019B06467BB91D4B1C688D
:105570002CB1636843B198472469002CF9D10FBB63
:10558000304622B0BDE8F0812469F1E7DFF85480AD
:10559000D8F80050EDB1144C01E02D6975B12B68BD
:1055A000002BFAD023680BB1AB42F6D12846019A02
:1055B00002A9FFF73BFE2D69002DF0D1D8F800407D
:1055C0000195D5E7054800F0A3FB304622B0BDE8C1
:1055D000F0810195D3E700BF40420F008005002015
:1055E000D952001020090020240900200FB400B572
:1055F00083B004A951F8040B0191FFF793FF03B0A6
:105600005DF804EB04B07047B1F1000C1DDD0F4AEA
:105610000F4B126830B5D31AB3FA83F30D240D4D36
:105620005B09411E35F913E08C4411F8010F8645E2
:1056300006D093699B06FCD461451060F5D130BD5E
:1056400093699D06FCD41460F3E77047700900204D
:10565000008007406C090020224BB1F1000C10B40F
:105660001C682EDD034600201F4A591E12689369EC
:10567000DB0617D401309369DB06FCD4136884453C
:1056800001F8013FF3D14CB150211346916353F817
:10569000342F02F0380203F580531A6060465DF83B
:1056A000044B70474CB150211346916353F8342F8B
:1056B00002F0380203F580531A6078B15DF8044BAC
:1056C00070475CB1084B50211A681346916353F838
:1056D000342F02F0380203F580531A606FF0020095
:1056E000ECE700BFE808002070090020054B1B68AC
:1056F00033B10021044A05481268006891631847D5
:10570000704700BFE808002070090020EC08002066
:10571000024B1A6893691B07FCD47047700900207C
:10572000F8B51C4F1C4D3A681C4EAA4214BF2125E7
:1057300022250446D6F800C018B1BCF1000F10D0E5
:10574000F8BDBCF1000FFBD0014690632846FBF783
:10575000EBFF28461249FCF72DF8124B34601C6011
:10576000F8BD0B460F4A0E49306028461360FBF720
:10577000F1FF01212846FBF7D7FF3A685021134675
:10578000916353F8342F02F0380203F580531A6006
:10579000F8BD00BF7009002000800740E808002025
:1057A000ED560010EC08002010B50E490E4C0F48C5
:1057B0000F4A104B007821600020022112781B78DC
:1057C000FBF782FE02210120FBF77EFE4FF4E13160
:1057D0002068FCF7BDFDBDE8104001210648FFF739
:1057E00023BE00BF0000074070090020EC610010DC
:1057F000E8610010E46100106405002010B5044663
:1058000004F12F4404F56004084B240D82B0A40079
:1058100000932246E31C0648FBF7F8FE8442CCBF07
:105820004FF0FF30001B02B010BD00BF146000102D
:10583000F40800202DE9F04789460546FBF79EFE57
:10584000012399F8042099F905C005F12F4EDFF8DE
:10585000D8800EF5600E93404FEA1E5EBCF1000F3B
:1058600058F82E7003F1FF3346DBC2F120018C455E
:10587000644631DC03FA0CF139422DD16646D5F885
:1058800068A199F80710BAF1000F2CD0C9072CD4E1
:10589000BCF1000F01DB664527D1B3401F423CD16C
:1058A000D9F8001082B1B44601EB420931F8022B5D
:1058B0000CF1120AB2F5005F38BF921949450CF19C
:1058C000010C45F82A20F1D13B4348F82E30FBF774
:1058D00067FE2046BDE8F0874FF0FF34FBF760FE1F
:1058E0002046BDE8F0874907D2D56FF00A04FBF7E0
:1058F00057FE2046BDE8F087D2F120040DD403FA0C
:1059000004F13942264603D1B9E739422646B6D0DA
:10591000013C661C03FA04F1F7D16FF00804FBF7B1
:105920003FFE2046BDE8F087DC0800202DE9F0436B
:105930004FF4003501EB410600EBC60404F5435477
:1059400000EBC606D6F8DC904F00D6F8CC80E560B8
:10595000B3B193FAA3FCBCFA8CFC22FA0CF503F168
:10596000FF3E4FEA4C1C05F001054CF0806445F405
:10597000604513EA0E03C6F8DC40C6F8D850E8D1FB
:105980000F4400EBC700C0F8DC90C0F8CC80BDE845
:10599000F08300BF2DE9F041D0F868419DF8186010
:1059A000121B1F2A38D84EF29F044EF280054FF486
:1059B000003801EB410C002E18BF254600EBCC044B
:1059C00004F5435400EBCC0C052BDCF8DC704FEAFB
:1059D000410EDCF8CC60C4F80C800CD95401053BB6
:1059E00044F0A0540532052BCCF8DC4002F01F0235
:1059F000CCF8D850F2D8714400EBC101002052011C
:105A000042EA8363C1F8DC30C1F8D850C1F8DC70D9
:105A1000C1F8CC60BDE8F0816FF00400FAE700BF88
:105A2000F0B5012504688D4024EA05040460B3B391
:105A3000D3E901561F68DC6801EB410300EBC303A7
:105A4000C3F8C8704FEA410CC3F8D060C3F8CC501B
:105A5000C3F8DC400CEB01034FF0013500EBC30C45
:105A60004FF0004600EBC30E01230EF5865E0C1DC1
:105A700001F108078D40CEF8106003FA04F4CEF867
:105A8000106002F01F028560BB4000F5005004600A
:105A90000EF1100E03600020CCF8D820F0BD4FF4BA
:105AA00080374FF440264FF4F83501EB410400EB0A
:105AB000C404C4F8C8704FEA410CC4F8D060C4F8FC
:105AC000CC50C4F8DC30C5E7002301461A4618461E
:105AD00000F0CCB838B5074D074C2C1BA41005D0EE
